{
  "contractName": "SupplyChain",
  "abi": [
    {
      "constant": true,
      "inputs": [
        {
          "name": "",
          "type": "uint256"
        }
      ],
      "name": "items",
      "outputs": [
        {
          "name": "name",
          "type": "string"
        },
        {
          "name": "sku",
          "type": "uint256"
        },
        {
          "name": "price",
          "type": "uint256"
        },
        {
          "name": "state",
          "type": "uint8"
        },
        {
          "name": "seller",
          "type": "address"
        },
        {
          "name": "buyer",
          "type": "address"
        }
      ],
      "payable": false,
      "stateMutability": "view",
      "type": "function"
    },
    {
      "inputs": [],
      "payable": false,
      "stateMutability": "nonpayable",
      "type": "constructor"
    },
    {
      "anonymous": false,
      "inputs": [
        {
          "indexed": true,
          "name": "sku",
          "type": "uint256"
        },
        {
          "indexed": false,
          "name": "_state",
          "type": "uint8"
        }
      ],
      "name": "ForSale",
      "type": "event"
    },
    {
      "anonymous": false,
      "inputs": [
        {
          "indexed": true,
          "name": "sku",
          "type": "uint256"
        },
        {
          "indexed": false,
          "name": "_state",
          "type": "uint8"
        }
      ],
      "name": "Sold",
      "type": "event"
    },
    {
      "anonymous": false,
      "inputs": [
        {
          "indexed": true,
          "name": "sku",
          "type": "uint256"
        },
        {
          "indexed": false,
          "name": "_state",
          "type": "uint8"
        }
      ],
      "name": "Shipped",
      "type": "event"
    },
    {
      "anonymous": false,
      "inputs": [
        {
          "indexed": true,
          "name": "sku",
          "type": "uint256"
        },
        {
          "indexed": false,
          "name": "_state",
          "type": "uint8"
        }
      ],
      "name": "Received",
      "type": "event"
    },
    {
      "constant": false,
      "inputs": [
        {
          "name": "_name",
          "type": "string"
        },
        {
          "name": "_price",
          "type": "uint256"
        },
        {
          "name": "_sku",
          "type": "uint256"
        }
      ],
      "name": "addItem",
      "outputs": [],
      "payable": false,
      "stateMutability": "nonpayable",
      "type": "function"
    },
    {
      "constant": false,
      "inputs": [
        {
          "name": "_sku",
          "type": "uint256"
        }
      ],
      "name": "buyItem",
      "outputs": [],
      "payable": true,
      "stateMutability": "payable",
      "type": "function"
    },
    {
      "constant": false,
      "inputs": [
        {
          "name": "_sku",
          "type": "uint256"
        }
      ],
      "name": "shipItem",
      "outputs": [],
      "payable": false,
      "stateMutability": "nonpayable",
      "type": "function"
    },
    {
      "constant": false,
      "inputs": [
        {
          "name": "_sku",
          "type": "uint256"
        }
      ],
      "name": "receiveItem",
      "outputs": [],
      "payable": false,
      "stateMutability": "nonpayable",
      "type": "function"
    },
    {
      "constant": true,
      "inputs": [
        {
          "name": "_sku",
          "type": "uint256"
        }
      ],
      "name": "fetchItem",
      "outputs": [
        {
          "name": "name",
          "type": "string"
        },
        {
          "name": "sku",
          "type": "uint256"
        },
        {
          "name": "price",
          "type": "uint256"
        },
        {
          "name": "state",
          "type": "uint256"
        },
        {
          "name": "seller",
          "type": "address"
        },
        {
          "name": "buyer",
          "type": "address"
        }
      ],
      "payable": false,
      "stateMutability": "view",
      "type": "function"
    }
  ],
  "bytecode": "0x608060405234801561001057600080fd5b506000339050600060018190555050610ee78061002e6000396000f300608060405260043610610078576000357c0100000000000000000000000000000000000000000000000000000000900463ffffffff168063a26be9991461007d578063ad4b9cfb146100aa578063bfb231d2146101cb578063d5e6c333146102fa578063e7fb74c714610377578063f61c899a14610397575b600080fd5b34801561008957600080fd5b506100a8600480360381019080803590602001909291905050506103c4565b005b3480156100b657600080fd5b506100d5600480360381019080803590602001909291905050506104fb565b60405180806020018781526020018681526020018581526020018473ffffffffffffffffffffffffffffffffffffffff1673ffffffffffffffffffffffffffffffffffffffff1681526020018373ffffffffffffffffffffffffffffffffffffffff1673ffffffffffffffffffffffffffffffffffffffff168152602001828103825288818151815260200191508051906020019080838360005b8381101561018b578082015181840152602081019050610170565b50505050905090810190601f1680156101b85780820380516001836020036101000a031916815260200191505b5097505050505050505060405180910390f35b3480156101d757600080fd5b506101f6600480360381019080803590602001909291905050506106a6565b604051808060200187815260200186815260200185600381111561021657fe5b60ff1681526020018473ffffffffffffffffffffffffffffffffffffffff1673ffffffffffffffffffffffffffffffffffffffff1681526020018373ffffffffffffffffffffffffffffffffffffffff1673ffffffffffffffffffffffffffffffffffffffff168152602001828103825288818151815260200191508051906020019080838360005b838110156102ba57808201518184015260208101905061029f565b50505050905090810190601f1680156102e75780820380516001836020036101000a031916815260200191505b5097505050505050505060405180910390f35b34801561030657600080fd5b50610375600480360381019080803590602001908201803590602001908080601f016020809104026020016040519081016040528093929190818152602001838380828437820191505050505050919291929080359060200190929190803590602001909291905050506107c7565b005b61039560048036038101908080359060200190929190505050610987565b005b3480156103a357600080fd5b506103c260048036038101908080359060200190929190505050610ce0565b005b600260038111156103d157fe5b6002600083815260200190815260200160002060030160009054906101000a900460ff16600381111561040057fe5b14801561046e57503373ffffffffffffffffffffffffffffffffffffffff166002600083815260200190815260200160002060030160019054906101000a900473ffffffffffffffffffffffffffffffffffffffff1673ffffffffffffffffffffffffffffffffffffffff16145b151561047957600080fd5b60036002600083815260200190815260200160002060030160006101000a81548160ff021916908360038111156104ac57fe5b0217905550807f284a2887d09b2336574c25d2b1e4b36abfe092e76b1bf2af8d88749582a9dea86003604051808260038111156104e557fe5b60ff16815260200191505060405180910390a250565b60606000806000806000600260008881526020019081526020016000206000018054600181600116156101000203166002900480601f0160208091040260200160405190810160405280929190818152602001828054600181600116156101000203166002900480156105af5780601f10610584576101008083540402835291602001916105af565b820191906000526020600020905b81548152906001019060200180831161059257829003601f168201915b5050505050955060026000888152602001908152602001600020600101549450600260008881526020019081526020016000206002015493506002600088815260200190815260200160002060030160009054906101000a900460ff16600381111561061757fe5b92506002600088815260200190815260200160002060030160019054906101000a900473ffffffffffffffffffffffffffffffffffffffff1691506002600088815260200190815260200160002060040160009054906101000a900473ffffffffffffffffffffffffffffffffffffffff16905085858585858595509550955095509550955091939550919395565b6002602052806000526040600020600091509050806000018054600181600116156101000203166002900480601f0160208091040260200160405190810160405280929190818152602001828054600181600116156101000203166002900480156107525780601f1061072757610100808354040283529160200191610752565b820191906000526020600020905b81548152906001019060200180831161073557829003601f168201915b5050505050908060010154908060020154908060030160009054906101000a900460ff16908060030160019054906101000a900473ffffffffffffffffffffffffffffffffffffffff16908060040160009054906101000a900473ffffffffffffffffffffffffffffffffffffffff16905086565b60c060405190810160405280848152602001828152602001838152602001600060038111156107f257fe5b81526020013373ffffffffffffffffffffffffffffffffffffffff168152602001600073ffffffffffffffffffffffffffffffffffffffff16815250600260006001548152602001908152602001600020600082015181600001908051906020019061085f929190610e16565b50602082015181600101556040820151816002015560608201518160030160006101000a81548160ff0219169083600381111561089857fe5b021790555060808201518160030160016101000a81548173ffffffffffffffffffffffffffffffffffffffff021916908373ffffffffffffffffffffffffffffffffffffffff16021790555060a08201518160040160006101000a81548173ffffffffffffffffffffffffffffffffffffffff021916908373ffffffffffffffffffffffffffffffffffffffff16021790555090505060018054016001819055506001547f91150e37d7a5748b9773bbc1b8c7d6ab0998d29a2bdb9cdcfafc1abcecd9700160006040518082600381111561096f57fe5b60ff16815260200191505060405180910390a2505050565b806000806000600381111561099857fe5b6002600085815260200190815260200160002060030160009054906101000a900460ff1660038111156109c757fe5b1415156109d357600080fd5b600060038111156109e057fe5b6002600086815260200190815260200160002060030160009054906101000a900460ff166003811115610a0f57fe5b148015610a7f575060026000858152602001908152602001600020600201546002600086815260200190815260200160002060040160009054906101000a900473ffffffffffffffffffffffffffffffffffffffff1673ffffffffffffffffffffffffffffffffffffffff163110155b1515610a8a57600080fd5b60016002600086815260200190815260200160002060030160006101000a81548160ff02191690836003811115610abd57fe5b0217905550837fcf39b5a63033915d9f4ca2203ecf050e5939a50991b485a191a89e728dc96870600160405180826003811115610af657fe5b60ff16815260200191505060405180910390a26002600084815260200190815260200160002060020154915081340390506002600084815260200190815260200160002060040160009054906101000a900473ffffffffffffffffffffffffffffffffffffffff1673ffffffffffffffffffffffffffffffffffffffff166108fc829081150290604051600060405180830381858888f19350505050158015610ba3573d6000803e3d6000fd5b5060006003811115610bb157fe5b6002600086815260200190815260200160002060030160009054906101000a900460ff166003811115610be057fe5b148015610c50575060026000858152602001908152602001600020600201546002600086815260200190815260200160002060040160009054906101000a900473ffffffffffffffffffffffffffffffffffffffff1673ffffffffffffffffffffffffffffffffffffffff163110155b1515610c5b57600080fd5b60016002600086815260200190815260200160002060030160006101000a81548160ff02191690836003811115610c8e57fe5b0217905550837fcf39b5a63033915d9f4ca2203ecf050e5939a50991b485a191a89e728dc96870600160405180826003811115610cc757fe5b60ff16815260200191505060405180910390a250505050565b60016003811115610ced57fe5b6002600083815260200190815260200160002060030160009054906101000a900460ff166003811115610d1c57fe5b148015610d8a57503373ffffffffffffffffffffffffffffffffffffffff166002600083815260200190815260200160002060030160019054906101000a900473ffffffffffffffffffffffffffffffffffffffff1673ffffffffffffffffffffffffffffffffffffffff16145b1515610d9557600080fd5b600280600083815260200190815260200160002060030160006101000a81548160ff02191690836003811115610dc757fe5b0217905550807f8a17c0978b995d01697b48df129ab4eb266bf16bbd82300259d75aa23a20b528600260405180826003811115610e0057fe5b60ff16815260200191505060405180910390a250565b828054600181600116156101000203166002900490600052602060002090601f016020900481019282601f10610e5757805160ff1916838001178555610e85565b82800160010185558215610e85579182015b82811115610e84578251825591602001919060010190610e69565b5b509050610e929190610e96565b5090565b610eb891905b80821115610eb4576000816000905550600101610e9c565b5090565b905600a165627a7a723058205213db8612da55e2ecc882e416f588944e45fbc49672aaa61c8561fa7d27e9140029",
  "source": "pragma solidity ^0.4.23;\n\ncontract SupplyChain {\n\n/* Add a line that creates an enum called State. This should have 4 states\n    ForSale\n    Sold\n    Shipped\n    Received\n    (declaring them in this order is important for testing)\n  */\n  enum State {\n    ForSale,\n    Sold,\n    Shipped,\n    Received\n  }\n\n  /* Create a struct named Item.\n    Here, add a name, sku, price, state, seller, and buyer\n    We've left you to figure out what the appropriate types are,\n    if you need help you can ask around :)\n  */\n  struct Item {\n    string name;\n    uint256 sku;\n    uint price;\n    State state;\n    address seller;\n    address buyer;\n  }\n\n  /* set owner */\n  address owner;\n\n  /* Add a variable called skuCount to track the most recent sku # */\n  uint skuCount;\n  \n\n  /* Add a line that creates a public mapping that maps the SKU (a number) to an Item.\n     Call this mappings items\n  */\n  mapping (uint => Item) public items;\n\n\n  /* Create 4 events with the same name as each possible State (see above)\n    Each event should accept one argument, the sku*/\n  event ForSale(uint indexed sku, State _state);\n  event Sold(uint indexed sku, State _state);\n  event Shipped(uint indexed sku, State _state);\n  event Received(uint indexed sku, State _state);\n\n/* Create a modifer that checks if the msg.sender is the owner of the contract */\n  modifier isContractOwner(address _address) { \n    require(msg.sender == _address); \n    _; }\n\n  modifier verifyCaller (address _address) { \n    require (msg.sender == _address); \n    _;\n  }\n\n  modifier paidEnough(uint _price) { \n    require(msg.value >= _price); \n    _;\n  }\n\n  modifier checkValue(uint _sku) {\n    //refund them after pay for item (why it is before, _ checks for logic before func)\n    require(items[_sku].state == State.ForSale);\n    _;\n    uint _price = items[_sku].price;\n    uint amountToRefund = msg.value - _price;\n    items[_sku].buyer.transfer(amountToRefund);\n    _;\n  }\n\n  /* For each of the following modifiers, use what you learned about modifiers\n   to give them functionality. For example, the forSale modifier should require\n   that the item with the given sku has the state ForSale. */\n  modifier forSale(uint256 _sku) {\n    require(items[_sku].state == State.ForSale);\n    _;\n  }\n\n  modifier sold(uint256 _sku) {\n    require(items[_sku].state == State.Sold);\n    _;\n  }\n\n  modifier shipped(uint256 _sku) {\n    require(items[_sku].state == State.Shipped);\n    _;\n  }\n\n  modifier received(uint256 _sku) {\n    require(items[_sku].state == State.Received);\n    _;\n  }\n\n\n  constructor() public {\n    /* Here, set the owner as the person who instantiated the contract\n       and set your skuCount to 0. */\n       address owner = msg.sender;\n       skuCount = 0;\n  }\n\n  function addItem(string _name, uint _price, uint256 _sku) public {\n    items[skuCount] = Item({name: _name, sku: _sku, price: _price, state: State.ForSale, seller: msg.sender, buyer: 0});\n    skuCount = skuCount + 1;\n    emit ForSale(skuCount, State.ForSale);\n  }\n\n  /* Add a keyword so the function can be paid. This function should transfer money\n    to the seller, set the buyer as the person who called this transaction, and set the state\n    to Sold. Be careful, this function should use 3 modifiers to check if the item is for sale,\n    if the buyer paid enough, and check the value after the function is called to make sure the buyer is\n    refunded any excess ether sent. Remember to call the event associated with this function!*/\n\n  function buyItem(uint _sku) public payable checkValue(_sku) {\n    //make sure item.sku is in State of ForSale\n    require( items[_sku].state == State.ForSale && (items[_sku].buyer).balance >= items[_sku].price );\n    //set state to Sold\n    items[_sku].state = State.Sold;\n    //emit appropriate event\n    emit Sold(_sku, State.Sold);\n    \n  }\n\n  /* Add 2 modifiers to check if the item is sold already, and that the person calling this function\n  is the seller. Change the state of the item to shipped. Remember to call the event associated with this function!*/\n  function shipItem(uint256 _sku) public {\n    require(items[_sku].state == State.Sold && items[_sku].seller == msg.sender);\n    items[_sku].state = State.Shipped;\n    emit Shipped(_sku, State.Shipped);\n  }\n\n  /* Add 2 modifiers to check if the item is shipped already, and that the person calling this function\n  is the buyer. Change the state of the item to received. Remember to call the event associated with this function!*/\n  function receiveItem(uint256 _sku) public {\n    require(items[_sku].state == State.Shipped && items[_sku].seller == msg.sender);\n    items[_sku].state = State.Received;\n    emit Received(_sku, State.Received);\n  }\n\n  /* We have these functions completed so we can run tests, just ignore it :) */\n  function fetchItem(uint _sku) public view returns (string name, uint sku, uint price, uint state, address seller, address buyer) {\n    name = items[_sku].name;\n    sku = items[_sku].sku;\n    price = items[_sku].price;\n    state = uint(items[_sku].state);\n    seller = items[_sku].seller;\n    buyer = items[_sku].buyer;\n    return (name, sku, price, state, seller, buyer);\n  }\n\n}\n",
  "sourcePath": "/Users/jaypersanchez/supply-chain-exercise/contracts/SupplyChain.sol",
  "compiler": {
    "name": "solc",
    "version": "0.4.28+commit.2fcccea1.Emscripten.clang"
  },
  "schemaVersion": "2.0.3",
  "updatedAt": "2018-12-05T13:50:46.866Z"
}